:020000040800F2
:100000009044002089010008370E0008C10D000847
:10001000350E00081B030008A10E000800000000B8
:100020000000000000000000000000003B0E00087F
:100030001D03000800000000390E00083D0E0008F6
:10004000A3010008A3010008A3010008A301000800
:10005000A3010008A3010008A3010008A3010008F0
:10006000A3010008A3010008A3010008A3010008E0
:10007000A3010008A3010008A3010008A3010008D0
:10008000A3010008A3010008A3010008A3010008C0
:10009000A3010008A3010008A3010008A3010008B0
:1000A000A3010008A3010008A3010008A3010008A0
:1000B000A3010008A3010008A3010008A301000890
:1000C000A3010008A3010008A3010008A301000880
:1000D000A3010008A3010008A3010008A301000870
:1000E000A3010008A3010008A301000800F002F822
:1000F00000F03AF80AA090E8000C82448344AAF188
:100100000107DA4501D100F02FF8AFF2090EBAE885
:100110000F0013F0010F18BFFB1A43F0010318473B
:10012000380E0000580E0000103A24BF78C878C17D
:10013000FAD8520724BF30C830C144BF04680C60ED
:10014000704700000023002400250026103A28BF35
:1001500078C1FBD8520728BF30C148BF0B60704739
:100160001FB51FBD10B510BD00F09DF81146FFF77B
:10017000F7FF00F0A7FE00F0BBF803B4FFF7F2FFB3
:1001800003BC00F0C3F80000094880470948004755
:10019000FEE7FEE7FEE7FEE7FEE7FEE7FEE7FEE737
:1001A000FEE7FEE704480549054A064B7047000094
:1001B0009F0E0008ED0000089002002090440020EF
:1001C0009004002090040020B2F120030AD5C2F16F
:1001D000200320FA02F001FA03F321FA02F140EAC7
:1001E0000300704721FA03F04FF00001704710B58B
:1001F000203AC0F00B80B1E81850203AA0E818501F
:10020000B1E81850A0E81850BFF4F5AF5FEA027CDF
:1002100024BFB1E81850A0E8185044BF18C918C04E
:10022000BDE810405FEA827C24BF51F8043B40F8EF
:10023000043B08BF7047D20728BF31F8023B48BFD4
:1002400011F8012B28BF20F8023B48BF00F8012B12
:1002500070474FF0000200B5134694469646203989
:1002600022BFA0E80C50A0E80C50B1F12001BFF46F
:10027000F7AF090728BFA0E80C5048BF0CC05DF8D5
:1002800004EB890028BF40F8042B08BF704748BF23
:1002900020F8022B11F0804F18BF00F8012B704797
:1002A000704770477047754600F02CF8AE46050061
:1002B0006946534620F00700854618B020B5FFF781
:1002C00071FFBDE820404FF000064FF000074FF0EF
:1002D00000084FF0000B21F00701AC46ACE8C00964
:1002E000ACE8C009ACE8C009ACE8C0098D4670476D
:1002F00010B50446AFF300802046BDE81040FFF77C
:100300003CBF00000048704730020020014918201F
:10031000ABBEFEE7260002007047FEE77047000014
:10032000064A0021D16106490A6942F002020A61C7
:100330004861086940F040000861704710020020E1
:1003400000200240044B0022DA61044A136943F0A2
:100350000103136101807047100200200020024059
:1003600014480022C168CB06134904D5CA6942F07B
:100370000202CA611022C3685B0705D5CB6943F04E
:100380000103CB6142F00402C369DB0707D0CB69EC
:1003900043F00403CB61C16921F00101C161A2F501
:1003A0008071013901D0C2607047C16921F001013B
:1003B000C1617047002002401002002070B5054660
:1003C00000F00EFA0646114C09E0681C07D025B172
:1003D00000F006FA801BA84201D9032070BDE06836
:1003E000C007F2D1E068800601D52020E060E06817
:1003F000C00605D4E069C00702D1E068400703D514
:10040000FFF7AEFF012070BD002070BD002002404C
:10041000F0B50F4D00248318AB4217D8C30705D0A1
:1004200030F8013C01241B0A0B70401C0023551EB0
:10043000171B09E01E19C25A8A55AE4202DA0E4451
:10044000120A72709B1C9BB29F42F3DCF0BD00004D
:10045000000001082DE9F04FC0F30903C61A831B01
:10046000ADF2044D9FB2894615464FF00108B0F138
:10047000006F41D32249104488423DD2002D3BD029
:1004800000F0A4F8EB464FF4806A0020594652462B
:1004900033580B50001D80B29042F9D30024C81984
:1004A00005E000BF19F804100155641CA4B2E1195D
:1004B000514501D2AC42F5D33046FFF731FF4CF243
:1004C000503703E03846FFF779FF8046B8F1000F58
:1004D000F8D10C48016921F00201016152466946D8
:1004E000304600F011F82D1BA1444FF0000706F52F
:1004F0008066CAD100F020F80DF2044DBDE8F08FFF
:1005000000000108002002402DE9F04117460E4688
:10051000804600240CE000BF08EB04053259294650
:100520000023022000F012F80028F7D1241DA4B205
:10053000BC42F1D3BDE8F0810348016941F080017C
:100540000161002070470000002002402DE9F05FAB
:1005500007461C4888460024017E15461E46012990
:1005600009D00121814601764CF2503A5046FFF7FE
:1005700025FF18B122E00220BDE8F09F012F02D034
:10058000022F00D00427D346DFF83CA022012846E2
:100590003146FFF719FE81B208EB4400FFF7D2FEA7
:1005A0005846FFF70BFFDAF8102022F00102CAF8D4
:1005B000102018B9641CE4B2BC42E7D3002289F8C9
:1005C0001820D9E710020020002002400649002030
:1005D0000A69120607D5054A4A60054A4A60096950
:1005E000090600D50120704700200240230167451D
:1005F000AB89EFCD2DE9F84FDFF8B8910024A9F1D0
:10060000040B23460F2709F1040AABF1040EC9E0DD
:100610000125A5402A40AA427DD1674ED1F804C0E9
:10062000ACEB0608B44532D014DCBCF1030F3AD071
:1006300009DCBCF1000F2AD0BCF1010F1CD0BCF1C9
:10064000020F31D11DE0BCF1110F17D0BCF1120F18
:100650002AD119E0B8F5881F19D006DCB8F5803F1B
:1006600015D0B8F5801F1FD111E0B8F5001F0ED0CE
:10067000B8F5041F18D10AE0CB6815E0CB681B1D44
:1006800012E0CB6808330FE0CB680C330CE08B68CA
:100690002BB1012B4FF0080303D0456104E0042384
:1006A00002E0056100E00023FF2A01D8064601E0D0
:1006B00000F104064FEA840501D9A5F12005D6F81A
:1006C000008007FA05FC28EA0C0803FA05F548EA59
:1006D0000508C6F800804D68ED0062D5374DAE695B
:1006E00046F00106AE61AD6924F0030605F0010590
:1006F0000095334D06EB050CDCF80850A607360FC5
:1007000007FA06F825EA0805DFF8B880404503D166
:100710004FF0000817E044E0DFF8AC80404502D11C
:100720004FF001080FE0DFF8A480404502D14FF000
:10073000020808E0DFF89880404502D14FF0030836
:1007400001E04FF0040808FA06F848EA0508CCF87A
:1007500008804D68D9F80060ED024D4601D516437A
:1007600000E096432E604D68DAF80060AD02554611
:1007700001D5164300E096432E604D68DBF800601B
:10078000AD035D4601D5164300E096432E604D68EB
:10079000DEF80060ED03754601D5164300E0964390
:1007A0002E60641C0D682A46E5407FF431AFBDE839
:1007B000F88F0000080401400000111000100240F2
:1007C0000000014000080140000C01400010014001
:1007D000001401400AB1016170470904FBE7000001
:1007E00001488068704700000000002002488168CE
:1007F000027811448160704700000020074810B55E
:10080000016841F010010160032000F067F800204A
:1008100000F006F800F024F8002010BD002002408F
:1008200070B50D4D04464FF47A712878B1FBF0F0A5
:100830000A490968B1FBF0F000F0AEFA48B9102C93
:1008400007D200222146501E00F028F800206C60DC
:1008500070BD012070BD0000000000200C000020D1
:100860000C4808B5816941F001018161816901F09D
:1008700001010091C16941F08051C161C06900F07E
:10088000805000900448416821F0E06141F000711F
:10089000416008BD0010024000000140F0B40E4B62
:1008A0001B680C46C3F30223C3F10705042D00D9CE
:1008B0000425191D072901D2002300E0DB1E0126B3
:1008C00006FA05F1491E214099409E40761E1640C9
:1008D0003143F0BC00F0E5BA0CED00E0064900F051
:1008E000070208684FF6FF03184040EA0220034A57
:1008F00010430860704700000CED00E00000FA05AE
:100900002DE9F0470F46050061D0434E306800F0F6
:100910000700B84209D2306820F007003843306041
:10092000306800F00700B84251D128683B4C81077D
:1009300012D5400703D5606840F4E0606060287815
:10094000000703D5606840F4605060606068A96883
:1009500020F0F000084360602878C00728D068685D
:10096000012810D02168022810D0890700292EDA2A
:10097000616821F0030101436160FFF731FF8046A8
:1009800041F288390DE021688903EFE78901EDE73D
:10099000FFF726FFA0EB0801494502D90320BDE877
:1009A000F0876068696800F00C00B0EB810FEFD150
:1009B000306800F00700B8420BD9306820F007001B
:1009C00038433060306800F00700B84201D00120A1
:1009D000E5E72878400705D56068E96820F4E0601D
:1009E000084360602878000706D56068296920F40C
:1009F000605040EAC100606000F018F86168084A81
:100A0000C1F30311515CC8400649086006480068FC
:100A1000FFF706FF0020C2E700200240001002405E
:100A2000460F00080C000020040000200E4A516808
:100A30000E4801F00C03042B11D0082B0FD10C48E9
:100A4000C1F38343C903C05C0AD55168084AC1F3A6
:100A50004041921E515C054A5043B0FBF1F0704793
:100A600004494843704700000010024000127A0019
:100A7000360F000800093D002DE9F84F040070D042
:100A80002078C04DC00749D06868C0F381000128B4
:100A900007D06868C0F38100022809D16868C003E4
:100AA00006D52868800339D560680028E7D035E08E
:100AB0006068B0F5803F0BD010B1B0F5A02F11D019
:100AC000286820F480302860286820F4802002E024
:100AD000286840F480302860606890B1FFF780FE9D
:100AE00006460AE0286840F480202860F0E700BF4E
:100AF000FFF776FE801B642873D828688003F7D53B
:100B00000CE0FFF76DFE064605E000BFFFF768FE4C
:100B1000801B6428F0D828688003F7D420789A4E88
:100B200080074FF001094FF0000839D5686810F0D0
:100B30000C0F07D06868C0F38100022809D16868EB
:100B4000C00306D42868800714D52069012808D17D
:100B500010E02069B0B1C6F80090FFF741FE0746EB
:100B600005E00AE1FFF73CFEC01B0228C4D8286854
:100B70008007F7D52868616920F0F80040EAC100D5
:100B800028600DE0C6F80080FFF72AFE074604E063
:100B9000FFF726FEC01B022823D828688007F7D459
:100BA000207800072CD57948A169D9B1C0F8009008
:100BB000FFF716FE074604E0FFF712FEC01B0228EF
:100BC0000FD8686A8007F7D571484FF4FA5100686A
:100BD000B0FBF1F0009000BF0098411E0091FAD2E6
:100BE0000EE080E0C0F80080FFF7FAFD074604E061
:100BF000FFF7F6FDC01B022875D8686A8007F7D496
:100C00002078400760D5E8690027C00008D4E8696B
:100C100040F08050E861E869012700F080500090C2
:100C20005C480168C90513D40168834641F48071AA
:100C30000160FFF7D5FD824606E000BFFFF7D0FD5B
:100C4000A0EB0A0064284ED8DBF80000C005F5D5FB
:100C5000E06801280AD008B1052813D0286A20F0DE
:100C600001002862286A20F0040002E0286A40F0AF
:100C700001002862E06841F2883B98B1FFF7B0FDBF
:100C800082460BE0286A40F004002862EEE700BFCD
:100C9000FFF7A6FDA0EB0A0159455AD8286A80073C
:100CA000F6D50CE0FFF79CFD824605E0FFF798FDC6
:100CB000A0EB0A0159454CD8286A8007F6D41FB129
:100CC000E86920F08050E861E06988B36968C1F3A1
:100CD0008101022944D00228C6F8608004D0FFF7C1
:100CE0007FFD044638E034E0FFF77AFD074604E074
:100CF000FFF776FDC01B02282BD828688001F7D4A7
:100D0000206AB0F5803F05D16868A16820F4003002
:100D100008436860D4E908010843696821F4741144
:100D200008436860C6F86090FFF75AFD044606E085
:100D300025E000BFFFF754FD001B022809D82868F2
:100D40008001F7D51BE000BFFFF74AFD001B02281A
:100D500002D90320BDE8F88F28688001F4D40EE0A2
:100D60000128F7D06868226A00F48031914204D1EA
:100D7000616A00F47010884201D00120EAE7002087
:100D8000E8E70000001002400000424280044242B6
:100D90000C0000200070004010B5401EB0F1807FB4
:100DA00001D3012010BD4FF0E02460610F216017D6
:100DB00000F077F80020A06107202061002010BD1E
:100DC000FEE7000070B586B0002418480094019436
:100DD00002940394816941F010018161816901F0FD
:100DE00010010491816941F020018161816901F064
:100DF00020010491816941F00401816180690C4EF8
:100E000000F004004FF400550490002229463046BB
:100E1000FFF7E0FC01200095CDE9010402200390DA
:100E200069463046FFF7E6FB06B070BD0010024091
:100E300000100140FEE7FEE770477047FFF7D6BCA1
:100E400030B58FB028216846FFF703FA14210AA8AD
:100E5000FFF7FFF901210804CDE9001000240294F6
:100E600002250491CDE907504FF4E010099068463F
:100E7000FFF702FE08B172B6FEE70F20CDE90A05C2
:100E80004FF48060CDE90C4002210AA80E94FFF7D0
:100E900037FD002801D072B6FEE70FB030BD7047B5
:100EA000FEE70907090E002804DB00F1E02080F8C6
:100EB0000014704700F00F0000F1E02080F8141DCE
:100EC0007047000086B0182211A16846FFF78FF91D
:100ED000FFF794FCFFF7B4FF152269461248FFF7AD
:100EE000B9FA124900200854401CC0B2FF28FAD3B6
:100EF0000F4CFF220D492046FFF7ACFA0B49FF22A9
:100F0000FF312046FFF784FAFFF75CFFFEE70000A1
:100F100048656C6C6F20576F726C642068656C6CF0
:100F20006F20544D00000000000001081000002058
:100F300015C00008010202030405060708090A0B90
:100F40000C0D0E0F10100000000000000000010248
:100F50000304060708090000780F000800000020BD
:100F60001000000028010008880F00081000002071
:100F7000804400004401000801000000100000004F
:080F80000000000000127A00DD
:04000005080000ED02
:00000001FF
